{
  "_format": "hh-sol-artifact-1",
  "contractName": "Transactions",
  "sourceName": "contracts/Transactions.sol",
  "abi": [
    {
      "inputs": [],
      "stateMutability": "nonpayable",
      "type": "constructor"
    },
    {
      "anonymous": false,
      "inputs": [
        {
          "indexed": false,
          "internalType": "address",
          "name": "from",
          "type": "address"
        },
        {
          "indexed": false,
          "internalType": "address",
          "name": "receiver",
          "type": "address"
        },
        {
          "indexed": false,
          "internalType": "uint256",
          "name": "amount",
          "type": "uint256"
        },
        {
          "indexed": false,
          "internalType": "string",
          "name": "message",
          "type": "string"
        },
        {
          "indexed": false,
          "internalType": "uint256",
          "name": "timestamp",
          "type": "uint256"
        },
        {
          "indexed": false,
          "internalType": "string",
          "name": "keyword",
          "type": "string"
        }
      ],
      "name": "Transfer",
      "type": "event"
    },
    {
      "inputs": [
        {
          "internalType": "address payable",
          "name": "receiver",
          "type": "address"
        },
        {
          "internalType": "uint256",
          "name": "amount",
          "type": "uint256"
        },
        {
          "internalType": "string",
          "name": "message",
          "type": "string"
        },
        {
          "internalType": "string",
          "name": "keyword",
          "type": "string"
        }
      ],
      "name": "addToBlockchain",
      "outputs": [],
      "stateMutability": "nonpayable",
      "type": "function"
    },
    {
      "inputs": [],
      "name": "getAllTransactions",
      "outputs": [
        {
          "components": [
            {
              "internalType": "address",
              "name": "sender",
              "type": "address"
            },
            {
              "internalType": "address",
              "name": "receiver",
              "type": "address"
            },
            {
              "internalType": "uint256",
              "name": "amount",
              "type": "uint256"
            },
            {
              "internalType": "string",
              "name": "message",
              "type": "string"
            },
            {
              "internalType": "uint256",
              "name": "timestamp",
              "type": "uint256"
            },
            {
              "internalType": "string",
              "name": "keyword",
              "type": "string"
            }
          ],
          "internalType": "struct Transactions.TranferStruct[]",
          "name": "",
          "type": "tuple[]"
        }
      ],
      "stateMutability": "view",
      "type": "function"
    },
    {
      "inputs": [],
      "name": "getTransactionCount",
      "outputs": [
        {
          "internalType": "uint256",
          "name": "",
          "type": "uint256"
        }
      ],
      "stateMutability": "view",
      "type": "function"
    }
  ],
  "bytecode": "0x608060405234801561001057600080fd5b5060008081905550610e12806100276000396000f3fe608060405234801561001057600080fd5b50600436106100415760003560e01c806327506f53146100465780632e7700f014610064578063cc2d7ead14610082575b600080fd5b61004e61009e565b60405161005b91906106e0565b60405180910390f35b61006c6102e1565b6040516100799190610711565b60405180910390f35b61009c600480360381019061009791906108df565b6102ea565b005b60606001805480602002602001604051908101604052809291908181526020016000905b828210156102d857838290600052602060002090600602016040518060c00160405290816000820160009054906101000a900473ffffffffffffffffffffffffffffffffffffffff1673ffffffffffffffffffffffffffffffffffffffff1673ffffffffffffffffffffffffffffffffffffffff1681526020016001820160009054906101000a900473ffffffffffffffffffffffffffffffffffffffff1673ffffffffffffffffffffffffffffffffffffffff1673ffffffffffffffffffffffffffffffffffffffff168152602001600282015481526020016003820180546101ab906109ad565b80601f01602080910402602001604051908101604052809291908181526020018280546101d7906109ad565b80156102245780601f106101f957610100808354040283529160200191610224565b820191906000526020600020905b81548152906001019060200180831161020757829003601f168201915b5050505050815260200160048201548152602001600582018054610247906109ad565b80601f0160208091040260200160405190810160405280929190818152602001828054610273906109ad565b80156102c05780601f10610295576101008083540402835291602001916102c0565b820191906000526020600020905b8154815290600101906020018083116102a357829003601f168201915b505050505081525050815260200190600101906100c2565b50505050905090565b60008054905090565b60016000808282546102fc9190610a0d565b9250508190555060006040518060c001604052803373ffffffffffffffffffffffffffffffffffffffff1681526020018673ffffffffffffffffffffffffffffffffffffffff168152602001858152602001848152602001428152602001838152509050600181908060018154018082558091505060019003906000526020600020906006020160009091909190915060008201518160000160006101000a81548173ffffffffffffffffffffffffffffffffffffffff021916908373ffffffffffffffffffffffffffffffffffffffff16021790555060208201518160010160006101000a81548173ffffffffffffffffffffffffffffffffffffffff021916908373ffffffffffffffffffffffffffffffffffffffff1602179055506040820151816002015560608201518160030190816104399190610bed565b506080820151816004015560a08201518160050190816104599190610bed565b5050507f416cfa4330a4565f45c2fd2dd4826a83a37443aba2ce6f79477c7355afac35fa33868686428760405161049596959493929190610d6d565b60405180910390a15050505050565b600081519050919050565b600082825260208201905092915050565b6000819050602082019050919050565b600073ffffffffffffffffffffffffffffffffffffffff82169050919050565b60006104fb826104d0565b9050919050565b61050b816104f0565b82525050565b6000819050919050565b61052481610511565b82525050565b600081519050919050565b600082825260208201905092915050565b60005b83811015610564578082015181840152602081019050610549565b60008484015250505050565b6000601f19601f8301169050919050565b600061058c8261052a565b6105968185610535565b93506105a6818560208601610546565b6105af81610570565b840191505092915050565b600060c0830160008301516105d26000860182610502565b5060208301516105e56020860182610502565b5060408301516105f8604086018261051b565b50606083015184820360608601526106108282610581565b9150506080830151610625608086018261051b565b5060a083015184820360a086015261063d8282610581565b9150508091505092915050565b600061065683836105ba565b905092915050565b6000602082019050919050565b6000610676826104a4565b61068081856104af565b935083602082028501610692856104c0565b8060005b858110156106ce57848403895281516106af858261064a565b94506106ba8361065e565b925060208a01995050600181019050610696565b50829750879550505050505092915050565b600060208201905081810360008301526106fa818461066b565b905092915050565b61070b81610511565b82525050565b60006020820190506107266000830184610702565b92915050565b6000604051905090565b600080fd5b600080fd5b600061074b826104d0565b9050919050565b61075b81610740565b811461076657600080fd5b50565b60008135905061077881610752565b92915050565b61078781610511565b811461079257600080fd5b50565b6000813590506107a48161077e565b92915050565b600080fd5b600080fd5b7f4e487b7100000000000000000000000000000000000000000000000000000000600052604160045260246000fd5b6107ec82610570565b810181811067ffffffffffffffff8211171561080b5761080a6107b4565b5b80604052505050565b600061081e61072c565b905061082a82826107e3565b919050565b600067ffffffffffffffff82111561084a576108496107b4565b5b61085382610570565b9050602081019050919050565b82818337600083830152505050565b600061088261087d8461082f565b610814565b90508281526020810184848401111561089e5761089d6107af565b5b6108a9848285610860565b509392505050565b600082601f8301126108c6576108c56107aa565b5b81356108d684826020860161086f565b91505092915050565b600080600080608085870312156108f9576108f8610736565b5b600061090787828801610769565b945050602061091887828801610795565b935050604085013567ffffffffffffffff8111156109395761093861073b565b5b610945878288016108b1565b925050606085013567ffffffffffffffff8111156109665761096561073b565b5b610972878288016108b1565b91505092959194509250565b7f4e487b7100000000000000000000000000000000000000000000000000000000600052602260045260246000fd5b600060028204905060018216806109c557607f821691505b6020821081036109d8576109d761097e565b5b50919050565b7f4e487b7100000000000000000000000000000000000000000000000000000000600052601160045260246000fd5b6000610a1882610511565b9150610a2383610511565b9250828201905080821115610a3b57610a3a6109de565b5b92915050565b60008190508160005260206000209050919050565b60006020601f8301049050919050565b600082821b905092915050565b600060088302610aa37fffffffffffffffffffffffffffffffffffffffffffffffffffffffffffffffff82610a66565b610aad8683610a66565b95508019841693508086168417925050509392505050565b6000819050919050565b6000610aea610ae5610ae084610511565b610ac5565b610511565b9050919050565b6000819050919050565b610b0483610acf565b610b18610b1082610af1565b848454610a73565b825550505050565b600090565b610b2d610b20565b610b38818484610afb565b505050565b5b81811015610b5c57610b51600082610b25565b600181019050610b3e565b5050565b601f821115610ba157610b7281610a41565b610b7b84610a56565b81016020851015610b8a578190505b610b9e610b9685610a56565b830182610b3d565b50505b505050565b600082821c905092915050565b6000610bc460001984600802610ba6565b1980831691505092915050565b6000610bdd8383610bb3565b9150826002028217905092915050565b610bf68261052a565b67ffffffffffffffff811115610c0f57610c0e6107b4565b5b610c1982546109ad565b610c24828285610b60565b600060209050601f831160018114610c575760008415610c45578287015190505b610c4f8582610bd1565b865550610cb7565b601f198416610c6586610a41565b60005b82811015610c8d57848901518255600182019150602085019450602081019050610c68565b86831015610caa5784890151610ca6601f891682610bb3565b8355505b6001600288020188555050505b505050505050565b610cc8816104f0565b82525050565b6000610ce9610ce4610cdf846104d0565b610ac5565b6104d0565b9050919050565b6000610cfb82610cce565b9050919050565b6000610d0d82610cf0565b9050919050565b610d1d81610d02565b82525050565b600082825260208201905092915050565b6000610d3f8261052a565b610d498185610d23565b9350610d59818560208601610546565b610d6281610570565b840191505092915050565b600060c082019050610d826000830189610cbf565b610d8f6020830188610d14565b610d9c6040830187610702565b8181036060830152610dae8186610d34565b9050610dbd6080830185610702565b81810360a0830152610dcf8184610d34565b905097965050505050505056fea264697066735822122029b5ea9cc6a6d6914825ee1e36243bef3927c4febf1dd431182d886b8dc99af764736f6c63430008130033",
  "linkReferences": {},
  "deployedLinkReferences": {}
}